{"contracts/Raffle.sol":{"Raffle":{"abi":[{"inputs":[{"internalType":"address","name":"vrfCoordinatorV2","type":"address"},{"internalType":"uint256","name":"entrancefee","type":"uint256"},{"internalType":"bytes32","name":"gasLane","type":"bytes32"},{"internalType":"uint64","name":"subscriptionId","type":"uint64"},{"internalType":"uint32","name":"callbackGasLimit","type":"uint32"},{"internalType":"uint256","name":"interval","type":"uint256"}],"stateMutability":"nonpayable","type":"constructor"},{"inputs":[{"internalType":"address","name":"have","type":"address"},{"internalType":"address","name":"want","type":"address"}],"name":"OnlyCoordinatorCanFulfill","type":"error"},{"inputs":[],"name":"Raffle__NotEnoughETHEntered","type":"error"},{"inputs":[],"name":"Raffle__NotOpen","type":"error"},{"inputs":[],"name":"Raffle__TransferFailed","type":"error"},{"inputs":[{"internalType":"uint256","name":"currentBalance","type":"uint256"},{"internalType":"uint256","name":"numPlayers","type":"uint256"},{"internalType":"uint256","name":"raffleState","type":"uint256"}],"name":"Raffle__UpkeepNotNeeded","type":"error"},{"anonymous":false,"inputs":[{"indexed":true,"internalType":"address","name":"player","type":"address"}],"name":"RaffleEnter","type":"event"},{"anonymous":false,"inputs":[{"indexed":true,"internalType":"uint256","name":"requestId","type":"uint256"}],"name":"RequestedRaffleWinner","type":"event"},{"anonymous":false,"inputs":[{"indexed":true,"internalType":"address","name":"winner","type":"address"}],"name":"WinnerPicked","type":"event"},{"inputs":[{"internalType":"bytes","name":"","type":"bytes"}],"name":"checkUpkeep","outputs":[{"internalType":"bool","name":"upkeepNeeded","type":"bool"},{"internalType":"bytes","name":"","type":"bytes"}],"stateMutability":"nonpayable","type":"function"},{"inputs":[],"name":"enterRaffle","outputs":[],"stateMutability":"payable","type":"function"},{"inputs":[],"name":"getEntrancefee","outputs":[{"internalType":"uint256","name":"","type":"uint256"}],"stateMutability":"view","type":"function"},{"inputs":[],"name":"getInterval","outputs":[{"internalType":"uint256","name":"","type":"uint256"}],"stateMutability":"view","type":"function"},{"inputs":[],"name":"getLastTimestamp","outputs":[{"internalType":"uint256","name":"","type":"uint256"}],"stateMutability":"view","type":"function"},{"inputs":[],"name":"getNumWords","outputs":[{"internalType":"uint256","name":"","type":"uint256"}],"stateMutability":"pure","type":"function"},{"inputs":[],"name":"getNumberOfPlayers","outputs":[{"internalType":"uint256","name":"","type":"uint256"}],"stateMutability":"view","type":"function"},{"inputs":[{"internalType":"uint256","name":"index","type":"uint256"}],"name":"getPlayer","outputs":[{"internalType":"address","name":"","type":"address"}],"stateMutability":"view","type":"function"},{"inputs":[],"name":"getRaffleState","outputs":[{"internalType":"enum Raffle.RaffleState","name":"","type":"uint8"}],"stateMutability":"view","type":"function"},{"inputs":[],"name":"getRecentWinner","outputs":[{"internalType":"address","name":"","type":"address"}],"stateMutability":"view","type":"function"},{"inputs":[],"name":"getRequestConfirmation","outputs":[{"internalType":"uint256","name":"","type":"uint256"}],"stateMutability":"pure","type":"function"},{"inputs":[{"internalType":"bytes","name":"","type":"bytes"}],"name":"performUpkeep","outputs":[],"stateMutability":"nonpayable","type":"function"},{"inputs":[{"internalType":"uint256","name":"requestId","type":"uint256"},{"internalType":"uint256[]","name":"randomWords","type":"uint256[]"}],"name":"rawFulfillRandomWords","outputs":[],"stateMutability":"nonpayable","type":"function"}],"devdoc":{"kind":"dev","methods":{},"version":1},"evm":{"bytecode":{"linkReferences":{},"object":"6101606040523480156200001257600080fd5b50604051620017dd380380620017dd8339818101604052810190620000389190620001ad565b858073ffffffffffffffffffffffffffffffffffffffff1660808173ffffffffffffffffffffffffffffffffffffffff1660601b81525050508460a081815250508573ffffffffffffffffffffffffffffffffffffffff1660c08173ffffffffffffffffffffffffffffffffffffffff1660601b815250508360e081815250508267ffffffffffffffff166101008167ffffffffffffffff1660c01b815250508163ffffffff166101208163ffffffff1660e01b815250506000600160146101000a81548160ff02191690836001811115620001195762000118620002b5565b5b0217905550426002819055508061014081815250505050505050506200036b565b6000815190506200014b81620002e9565b92915050565b600081519050620001628162000303565b92915050565b60008151905062000179816200031d565b92915050565b600081519050620001908162000337565b92915050565b600081519050620001a78162000351565b92915050565b60008060008060008060c08789031215620001cd57620001cc620002e4565b5b6000620001dd89828a016200013a565b9650506020620001f089828a0162000168565b95505060406200020389828a0162000151565b94505060606200021689828a0162000196565b93505060806200022989828a016200017f565b92505060a06200023c89828a0162000168565b9150509295509295509295565b6000620002568262000267565b9050919050565b6000819050919050565b600073ffffffffffffffffffffffffffffffffffffffff82169050919050565b6000819050919050565b600063ffffffff82169050919050565b600067ffffffffffffffff82169050919050565b7f4e487b7100000000000000000000000000000000000000000000000000000000600052602160045260246000fd5b600080fd5b620002f48162000249565b81146200030057600080fd5b50565b6200030e816200025d565b81146200031a57600080fd5b50565b620003288162000287565b81146200033457600080fd5b50565b620003428162000291565b81146200034e57600080fd5b50565b6200035c81620002a1565b81146200036857600080fd5b50565b60805160601c60a05160c05160601c60e0516101005160c01c6101205160e01c610140516113f6620003e76000396000818161079001526107fe0152600061067b0152600061065801526000610637015260006105fb0152600081816103cf015261083301526000818161030f015261036301526113f66000f3fe6080604052600436106100c25760003560e01c806353a2c19a1161007f578063ca6a9ef811610059578063ca6a9ef814610238578063d9dba73214610263578063e55ae4e81461028e578063fd6673f5146102cb576100c2565b806353a2c19a146101a45780636e04ff0d146101cf57806391ad27b41461020d576100c2565b8063115cbaf5146100c75780631fe543e3146100f25780632cfcc5391461011b57806337899770146101255780634585e33b14610150578063473f1ddc14610179575b600080fd5b3480156100d357600080fd5b506100dc6102f6565b6040516100e99190610fe1565b60405180910390f35b3480156100fe57600080fd5b5061011960048036038101906101149190610dd5565b61030d565b005b6101236103cd565b005b34801561013157600080fd5b5061013a61053c565b6040516101479190610ffc565b60405180910390f35b34801561015c57600080fd5b5061017760048036038101906101729190610ce5565b610546565b005b34801561018557600080fd5b5061018e610714565b60405161019b9190610f1a565b60405180910390f35b3480156101b057600080fd5b506101b961073e565b6040516101c69190610ffc565b60405180910390f35b3480156101db57600080fd5b506101f660048036038101906101f19190610d32565b61074d565b604051610204929190610f5e565b60405180910390f35b34801561021957600080fd5b506102226107fa565b60405161022f9190610ffc565b60405180910390f35b34801561024457600080fd5b5061024d610822565b60405161025a9190610ffc565b60405180910390f35b34801561026f57600080fd5b5061027861082f565b6040516102859190610ffc565b60405180910390f35b34801561029a57600080fd5b506102b560048036038101906102b09190610d7b565b610857565b6040516102c29190610f1a565b60405180910390f35b3480156102d757600080fd5b506102e061089e565b6040516102ed9190610ffc565b60405180910390f35b6000600160149054906101000a900460ff16905090565b7f000000000000000000000000000000000000000000000000000000000000000073ffffffffffffffffffffffffffffffffffffffff163373ffffffffffffffffffffffffffffffffffffffff16146103bf57337f00000000000000000000000000000000000000000000000000000000000000006040517f1cf993f40000000000000000000000000000000000000000000000000000000081526004016103b6929190610f35565b60405180910390fd5b6103c982826108aa565b5050565b7f0000000000000000000000000000000000000000000000000000000000000000341015610427576040517fbd4e069500000000000000000000000000000000000000000000000000000000815260040160405180910390fd5b6000600181111561043b5761043a6112d6565b5b600160149054906101000a900460ff16600181111561045d5761045c6112d6565b5b14610494576040517f1425571c00000000000000000000000000000000000000000000000000000000815260040160405180910390fd5b6000339080600181540180825580915050600190039060005260206000200160009091909190916101000a81548173ffffffffffffffffffffffffffffffffffffffff021916908373ffffffffffffffffffffffffffffffffffffffff1602179055503373ffffffffffffffffffffffffffffffffffffffff167f0805e1d667bddb8a95f0f09880cf94f403fb596ce79928d9f29b74203ba284d460405160405180910390a2565b6000600254905090565b60006105606040518060200160405280600081525061074d565b509050806105cf5747600080549050600160149054906101000a900460ff166001811115610591576105906112d6565b5b6040517f584327aa0000000000000000000000000000000000000000000000000000000081526004016105c693929190611017565b60405180910390fd5b60018060146101000a81548160ff021916908360018111156105f4576105f36112d6565b5b02179055507f000000000000000000000000000000000000000000000000000000000000000073ffffffffffffffffffffffffffffffffffffffff16635d3b1d307f00000000000000000000000000000000000000000000000000000000000000007f000000000000000000000000000000000000000000000000000000000000000060037f000000000000000000000000000000000000000000000000000000000000000060016040518663ffffffff1660e01b81526004016106bc959493929190610f8e565b602060405180830381600087803b1580156106d657600080fd5b505af11580156106ea573d6000803e3d6000fd5b505050506040513d601f19601f8201168201806040525081019061070e9190610da8565b50505050565b6000600160009054906101000a900473ffffffffffffffffffffffffffffffffffffffff16905090565b6000600163ffffffff16905090565b600060606000600160149054906101000a900460ff166001811115610775576107746112d6565b5b60006001811115610789576107886112d6565b5b14905060007f0000000000000000000000000000000000000000000000000000000000000000600254426107bd91906110f7565b119050600080600080549050119050600080471190508380156107dd5750825b80156107e65750815b80156107ef5750805b955050505050915091565b60007f0000000000000000000000000000000000000000000000000000000000000000905090565b6000600361ffff16905090565b60007f0000000000000000000000000000000000000000000000000000000000000000905090565b600080828154811061086c5761086b611305565b5b9060005260206000200160009054906101000a900473ffffffffffffffffffffffffffffffffffffffff169050919050565b60008080549050905090565b60008080549050826000815181106108c5576108c4611305565b5b60200260200101516108d79190611247565b905060008082815481106108ee576108ed611305565b5b9060005260206000200160009054906101000a900473ffffffffffffffffffffffffffffffffffffffff16905080600160006101000a81548173ffffffffffffffffffffffffffffffffffffffff021916908373ffffffffffffffffffffffffffffffffffffffff160217905550600067ffffffffffffffff81111561097757610976611334565b5b6040519080825280602002602001820160405280156109a55781602001602082028036833780820191505090505b50600090805190602001906109bb929190610ab0565b504260028190555060008173ffffffffffffffffffffffffffffffffffffffff16476040516109e990610f05565b60006040518083038185875af1925050503d8060008114610a26576040519150601f19603f3d011682016040523d82523d6000602084013e610a2b565b606091505b5050905080610a66576040517fa1d04b3900000000000000000000000000000000000000000000000000000000815260040160405180910390fd5b8173ffffffffffffffffffffffffffffffffffffffff167f5b690ec4a06fe979403046eaeea5b3ce38524683c3001f662c8b5a829632f7df60405160405180910390a25050505050565b828054828255906000526020600020908101928215610b29579160200282015b82811115610b285782518260006101000a81548173ffffffffffffffffffffffffffffffffffffffff021916908373ffffffffffffffffffffffffffffffffffffffff16021790555091602001919060010190610ad0565b5b509050610b369190610b3a565b5090565b5b80821115610b53576000816000905550600101610b3b565b5090565b6000610b6a610b6584611073565b61104e565b90508083825260208201905082856020860282011115610b8d57610b8c61136d565b5b60005b85811015610bbd5781610ba38882610cbb565b845260208401935060208301925050600181019050610b90565b5050509392505050565b6000610bda610bd58461109f565b61104e565b905082815260208101848484011115610bf657610bf5611372565b5b610c018482856111d4565b509392505050565b600082601f830112610c1e57610c1d611368565b5b8135610c2e848260208601610b57565b91505092915050565b60008083601f840112610c4d57610c4c611368565b5b8235905067ffffffffffffffff811115610c6a57610c69611363565b5b602083019150836001820283011115610c8657610c8561136d565b5b9250929050565b600082601f830112610ca257610ca1611368565b5b8135610cb2848260208601610bc7565b91505092915050565b600081359050610cca816113a9565b92915050565b600081519050610cdf816113a9565b92915050565b60008060208385031215610cfc57610cfb61137c565b5b600083013567ffffffffffffffff811115610d1a57610d19611377565b5b610d2685828601610c37565b92509250509250929050565b600060208284031215610d4857610d4761137c565b5b600082013567ffffffffffffffff811115610d6657610d65611377565b5b610d7284828501610c8d565b91505092915050565b600060208284031215610d9157610d9061137c565b5b6000610d9f84828501610cbb565b91505092915050565b600060208284031215610dbe57610dbd61137c565b5b6000610dcc84828501610cd0565b91505092915050565b60008060408385031215610dec57610deb61137c565b5b6000610dfa85828601610cbb565b925050602083013567ffffffffffffffff811115610e1b57610e1a611377565b5b610e2785828601610c09565b9150509250929050565b610e3a8161112b565b82525050565b610e498161113d565b82525050565b610e5881611149565b82525050565b6000610e69826110d0565b610e7381856110db565b9350610e838185602086016111e3565b610e8c81611381565b840191505092915050565b610ea0816111c2565b82525050565b6000610eb36000836110ec565b9150610ebe82611392565b600082019050919050565b610ed281611166565b82525050565b610ee181611194565b82525050565b610ef08161119e565b82525050565b610eff816111ae565b82525050565b6000610f1082610ea6565b9150819050919050565b6000602082019050610f2f6000830184610e31565b92915050565b6000604082019050610f4a6000830185610e31565b610f576020830184610e31565b9392505050565b6000604082019050610f736000830185610e40565b8181036020830152610f858184610e5e565b90509392505050565b600060a082019050610fa36000830188610e4f565b610fb06020830187610ef6565b610fbd6040830186610ec9565b610fca6060830185610ee7565b610fd76080830184610ee7565b9695505050505050565b6000602082019050610ff66000830184610e97565b92915050565b60006020820190506110116000830184610ed8565b92915050565b600060608201905061102c6000830186610ed8565b6110396020830185610ed8565b6110466040830184610ed8565b949350505050565b6000611058611069565b90506110648282611216565b919050565b6000604051905090565b600067ffffffffffffffff82111561108e5761108d611334565b5b602082029050602081019050919050565b600067ffffffffffffffff8211156110ba576110b9611334565b5b6110c382611381565b9050602081019050919050565b600081519050919050565b600082825260208201905092915050565b600081905092915050565b600061110282611194565b915061110d83611194565b9250828210156111205761111f611278565b5b828203905092915050565b600061113682611174565b9050919050565b60008115159050919050565b6000819050919050565b600081905061116182611395565b919050565b600061ffff82169050919050565b600073ffffffffffffffffffffffffffffffffffffffff82169050919050565b6000819050919050565b600063ffffffff82169050919050565b600067ffffffffffffffff82169050919050565b60006111cd82611153565b9050919050565b82818337600083830152505050565b60005b838110156112015780820151818401526020810190506111e6565b83811115611210576000848401525b50505050565b61121f82611381565b810181811067ffffffffffffffff8211171561123e5761123d611334565b5b80604052505050565b600061125282611194565b915061125d83611194565b92508261126d5761126c6112a7565b5b828206905092915050565b7f4e487b7100000000000000000000000000000000000000000000000000000000600052601160045260246000fd5b7f4e487b7100000000000000000000000000000000000000000000000000000000600052601260045260246000fd5b7f4e487b7100000000000000000000000000000000000000000000000000000000600052602160045260246000fd5b7f4e487b7100000000000000000000000000000000000000000000000000000000600052603260045260246000fd5b7f4e487b7100000000000000000000000000000000000000000000000000000000600052604160045260246000fd5b600080fd5b600080fd5b600080fd5b600080fd5b600080fd5b600080fd5b6000601f19601f8301169050919050565b50565b600281106113a6576113a56112d6565b5b50565b6113b281611194565b81146113bd57600080fd5b5056fea26469706673582212207736e67b5caa32fd1a36453c3e076997c07ca521d5fe4d9576b9e49f82e0ccaa64736f6c63430008070033","opcodes":"PUSH2 0x160 PUSH1 0x40 MSTORE CALLVALUE DUP1 ISZERO PUSH3 0x12 JUMPI PUSH1 0x0 DUP1 REVERT JUMPDEST POP PUSH1 0x40 MLOAD PUSH3 0x17DD CODESIZE SUB DUP1 PUSH3 0x17DD DUP4 CODECOPY DUP2 DUP2 ADD PUSH1 0x40 MSTORE DUP2 ADD SWAP1 PUSH3 0x38 SWAP2 SWAP1 PUSH3 0x1AD JUMP JUMPDEST DUP6 DUP1 PUSH20 0xFFFFFFFFFFFFFFFFFFFFFFFFFFFFFFFFFFFFFFFF AND PUSH1 0x80 DUP2 PUSH20 0xFFFFFFFFFFFFFFFFFFFFFFFFFFFFFFFFFFFFFFFF AND PUSH1 0x60 SHL DUP2 MSTORE POP POP POP DUP5 PUSH1 0xA0 DUP2 DUP2 MSTORE POP POP DUP6 PUSH20 0xFFFFFFFFFFFFFFFFFFFFFFFFFFFFFFFFFFFFFFFF AND PUSH1 0xC0 DUP2 PUSH20 0xFFFFFFFFFFFFFFFFFFFFFFFFFFFFFFFFFFFFFFFF AND PUSH1 0x60 SHL DUP2 MSTORE POP POP DUP4 PUSH1 0xE0 DUP2 DUP2 MSTORE POP POP DUP3 PUSH8 0xFFFFFFFFFFFFFFFF AND PUSH2 0x100 DUP2 PUSH8 0xFFFFFFFFFFFFFFFF AND PUSH1 0xC0 SHL DUP2 MSTORE POP POP DUP2 PUSH4 0xFFFFFFFF AND PUSH2 0x120 DUP2 PUSH4 0xFFFFFFFF AND PUSH1 0xE0 SHL DUP2 MSTORE POP POP PUSH1 0x0 PUSH1 0x1 PUSH1 0x14 PUSH2 0x100 EXP DUP2 SLOAD DUP2 PUSH1 0xFF MUL NOT AND SWAP1 DUP4 PUSH1 0x1 DUP2 GT ISZERO PUSH3 0x119 JUMPI PUSH3 0x118 PUSH3 0x2B5 JUMP JUMPDEST JUMPDEST MUL OR SWAP1 SSTORE POP TIMESTAMP PUSH1 0x2 DUP2 SWAP1 SSTORE POP DUP1 PUSH2 0x140 DUP2 DUP2 MSTORE POP POP POP POP POP POP POP POP PUSH3 0x36B JUMP JUMPDEST PUSH1 0x0 DUP2 MLOAD SWAP1 POP PUSH3 0x14B DUP2 PUSH3 0x2E9 JUMP JUMPDEST SWAP3 SWAP2 POP POP JUMP JUMPDEST PUSH1 0x0 DUP2 MLOAD SWAP1 POP PUSH3 0x162 DUP2 PUSH3 0x303 JUMP JUMPDEST SWAP3 SWAP2 POP POP JUMP JUMPDEST PUSH1 0x0 DUP2 MLOAD SWAP1 POP PUSH3 0x179 DUP2 PUSH3 0x31D JUMP JUMPDEST SWAP3 SWAP2 POP POP JUMP JUMPDEST PUSH1 0x0 DUP2 MLOAD SWAP1 POP PUSH3 0x190 DUP2 PUSH3 0x337 JUMP JUMPDEST SWAP3 SWAP2 POP POP JUMP JUMPDEST PUSH1 0x0 DUP2 MLOAD SWAP1 POP PUSH3 0x1A7 DUP2 PUSH3 0x351 JUMP JUMPDEST SWAP3 SWAP2 POP POP JUMP JUMPDEST PUSH1 0x0 DUP1 PUSH1 0x0 DUP1 PUSH1 0x0 DUP1 PUSH1 0xC0 DUP8 DUP10 SUB SLT ISZERO PUSH3 0x1CD JUMPI PUSH3 0x1CC PUSH3 0x2E4 JUMP JUMPDEST JUMPDEST PUSH1 0x0 PUSH3 0x1DD DUP10 DUP3 DUP11 ADD PUSH3 0x13A JUMP JUMPDEST SWAP7 POP POP PUSH1 0x20 PUSH3 0x1F0 DUP10 DUP3 DUP11 ADD PUSH3 0x168 JUMP JUMPDEST SWAP6 POP POP PUSH1 0x40 PUSH3 0x203 DUP10 DUP3 DUP11 ADD PUSH3 0x151 JUMP JUMPDEST SWAP5 POP POP PUSH1 0x60 PUSH3 0x216 DUP10 DUP3 DUP11 ADD PUSH3 0x196 JUMP JUMPDEST SWAP4 POP POP PUSH1 0x80 PUSH3 0x229 DUP10 DUP3 DUP11 ADD PUSH3 0x17F JUMP JUMPDEST SWAP3 POP POP PUSH1 0xA0 PUSH3 0x23C DUP10 DUP3 DUP11 ADD PUSH3 0x168 JUMP JUMPDEST SWAP2 POP POP SWAP3 SWAP6 POP SWAP3 SWAP6 POP SWAP3 SWAP6 JUMP JUMPDEST PUSH1 0x0 PUSH3 0x256 DUP3 PUSH3 0x267 JUMP JUMPDEST SWAP1 POP SWAP2 SWAP1 POP JUMP JUMPDEST PUSH1 0x0 DUP2 SWAP1 POP SWAP2 SWAP1 POP JUMP JUMPDEST PUSH1 0x0 PUSH20 0xFFFFFFFFFFFFFFFFFFFFFFFFFFFFFFFFFFFFFFFF DUP3 AND SWAP1 POP SWAP2 SWAP1 POP JUMP JUMPDEST PUSH1 0x0 DUP2 SWAP1 POP SWAP2 SWAP1 POP JUMP JUMPDEST PUSH1 0x0 PUSH4 0xFFFFFFFF DUP3 AND SWAP1 POP SWAP2 SWAP1 POP JUMP JUMPDEST PUSH1 0x0 PUSH8 0xFFFFFFFFFFFFFFFF DUP3 AND SWAP1 POP SWAP2 SWAP1 POP JUMP JUMPDEST PUSH32 0x4E487B7100000000000000000000000000000000000000000000000000000000 PUSH1 0x0 MSTORE PUSH1 0x21 PUSH1 0x4 MSTORE PUSH1 0x24 PUSH1 0x0 REVERT JUMPDEST PUSH1 0x0 DUP1 REVERT JUMPDEST PUSH3 0x2F4 DUP2 PUSH3 0x249 JUMP JUMPDEST DUP2 EQ PUSH3 0x300 JUMPI PUSH1 0x0 DUP1 REVERT JUMPDEST POP JUMP JUMPDEST PUSH3 0x30E DUP2 PUSH3 0x25D JUMP JUMPDEST DUP2 EQ PUSH3 0x31A JUMPI PUSH1 0x0 DUP1 REVERT JUMPDEST POP JUMP JUMPDEST PUSH3 0x328 DUP2 PUSH3 0x287 JUMP JUMPDEST DUP2 EQ PUSH3 0x334 JUMPI PUSH1 0x0 DUP1 REVERT JUMPDEST POP JUMP JUMPDEST PUSH3 0x342 DUP2 PUSH3 0x291 JUMP JUMPDEST DUP2 EQ PUSH3 0x34E JUMPI PUSH1 0x0 DUP1 REVERT JUMPDEST POP JUMP JUMPDEST PUSH3 0x35C DUP2 PUSH3 0x2A1 JUMP JUMPDEST DUP2 EQ PUSH3 0x368 JUMPI PUSH1 0x0 DUP1 REVERT JUMPDEST POP JUMP JUMPDEST PUSH1 0x80 MLOAD PUSH1 0x60 SHR PUSH1 0xA0 MLOAD PUSH1 0xC0 MLOAD PUSH1 0x60 SHR PUSH1 0xE0 MLOAD PUSH2 0x100 MLOAD PUSH1 0xC0 SHR PUSH2 0x120 MLOAD PUSH1 0xE0 SHR PUSH2 0x140 MLOAD PUSH2 0x13F6 PUSH3 0x3E7 PUSH1 0x0 CODECOPY PUSH1 0x0 DUP2 DUP2 PUSH2 0x790 ADD MSTORE PUSH2 0x7FE ADD MSTORE PUSH1 0x0 PUSH2 0x67B ADD MSTORE PUSH1 0x0 PUSH2 0x658 ADD MSTORE PUSH1 0x0 PUSH2 0x637 ADD MSTORE PUSH1 0x0 PUSH2 0x5FB ADD MSTORE PUSH1 0x0 DUP2 DUP2 PUSH2 0x3CF ADD MSTORE PUSH2 0x833 ADD MSTORE PUSH1 0x0 DUP2 DUP2 PUSH2 0x30F ADD MSTORE PUSH2 0x363 ADD MSTORE PUSH2 0x13F6 PUSH1 0x0 RETURN INVALID PUSH1 0x80 PUSH1 0x40 MSTORE PUSH1 0x4 CALLDATASIZE LT PUSH2 0xC2 JUMPI PUSH1 0x0 CALLDATALOAD PUSH1 0xE0 SHR DUP1 PUSH4 0x53A2C19A GT PUSH2 0x7F JUMPI DUP1 PUSH4 0xCA6A9EF8 GT PUSH2 0x59 JUMPI DUP1 PUSH4 0xCA6A9EF8 EQ PUSH2 0x238 JUMPI DUP1 PUSH4 0xD9DBA732 EQ PUSH2 0x263 JUMPI DUP1 PUSH4 0xE55AE4E8 EQ PUSH2 0x28E JUMPI DUP1 PUSH4 0xFD6673F5 EQ PUSH2 0x2CB JUMPI PUSH2 0xC2 JUMP JUMPDEST DUP1 PUSH4 0x53A2C19A EQ PUSH2 0x1A4 JUMPI DUP1 PUSH4 0x6E04FF0D EQ PUSH2 0x1CF JUMPI DUP1 PUSH4 0x91AD27B4 EQ PUSH2 0x20D JUMPI PUSH2 0xC2 JUMP JUMPDEST DUP1 PUSH4 0x115CBAF5 EQ PUSH2 0xC7 JUMPI DUP1 PUSH4 0x1FE543E3 EQ PUSH2 0xF2 JUMPI DUP1 PUSH4 0x2CFCC539 EQ PUSH2 0x11B JUMPI DUP1 PUSH4 0x37899770 EQ PUSH2 0x125 JUMPI DUP1 PUSH4 0x4585E33B EQ PUSH2 0x150 JUMPI DUP1 PUSH4 0x473F1DDC EQ PUSH2 0x179 JUMPI JUMPDEST PUSH1 0x0 DUP1 REVERT JUMPDEST CALLVALUE DUP1 ISZERO PUSH2 0xD3 JUMPI PUSH1 0x0 DUP1 REVERT JUMPDEST POP PUSH2 0xDC PUSH2 0x2F6 JUMP JUMPDEST PUSH1 0x40 MLOAD PUSH2 0xE9 SWAP2 SWAP1 PUSH2 0xFE1 JUMP JUMPDEST PUSH1 0x40 MLOAD DUP1 SWAP2 SUB SWAP1 RETURN JUMPDEST CALLVALUE DUP1 ISZERO PUSH2 0xFE JUMPI PUSH1 0x0 DUP1 REVERT JUMPDEST POP PUSH2 0x119 PUSH1 0x4 DUP1 CALLDATASIZE SUB DUP2 ADD SWAP1 PUSH2 0x114 SWAP2 SWAP1 PUSH2 0xDD5 JUMP JUMPDEST PUSH2 0x30D JUMP JUMPDEST STOP JUMPDEST PUSH2 0x123 PUSH2 0x3CD JUMP JUMPDEST STOP JUMPDEST CALLVALUE DUP1 ISZERO PUSH2 0x131 JUMPI PUSH1 0x0 DUP1 REVERT JUMPDEST POP PUSH2 0x13A PUSH2 0x53C JUMP JUMPDEST PUSH1 0x40 MLOAD PUSH2 0x147 SWAP2 SWAP1 PUSH2 0xFFC JUMP JUMPDEST PUSH1 0x40 MLOAD DUP1 SWAP2 SUB SWAP1 RETURN JUMPDEST CALLVALUE DUP1 ISZERO PUSH2 0x15C JUMPI PUSH1 0x0 DUP1 REVERT JUMPDEST POP PUSH2 0x177 PUSH1 0x4 DUP1 CALLDATASIZE SUB DUP2 ADD SWAP1 PUSH2 0x172 SWAP2 SWAP1 PUSH2 0xCE5 JUMP JUMPDEST PUSH2 0x546 JUMP JUMPDEST STOP JUMPDEST CALLVALUE DUP1 ISZERO PUSH2 0x185 JUMPI PUSH1 0x0 DUP1 REVERT JUMPDEST POP PUSH2 0x18E PUSH2 0x714 JUMP JUMPDEST PUSH1 0x40 MLOAD PUSH2 0x19B SWAP2 SWAP1 PUSH2 0xF1A JUMP JUMPDEST PUSH1 0x40 MLOAD DUP1 SWAP2 SUB SWAP1 RETURN JUMPDEST CALLVALUE DUP1 ISZERO PUSH2 0x1B0 JUMPI PUSH1 0x0 DUP1 REVERT JUMPDEST POP PUSH2 0x1B9 PUSH2 0x73E JUMP JUMPDEST PUSH1 0x40 MLOAD PUSH2 0x1C6 SWAP2 SWAP1 PUSH2 0xFFC JUMP JUMPDEST PUSH1 0x40 MLOAD DUP1 SWAP2 SUB SWAP1 RETURN JUMPDEST CALLVALUE DUP1 ISZERO PUSH2 0x1DB JUMPI PUSH1 0x0 DUP1 REVERT JUMPDEST POP PUSH2 0x1F6 PUSH1 0x4 DUP1 CALLDATASIZE SUB DUP2 ADD SWAP1 PUSH2 0x1F1 SWAP2 SWAP1 PUSH2 0xD32 JUMP JUMPDEST PUSH2 0x74D JUMP JUMPDEST PUSH1 0x40 MLOAD PUSH2 0x204 SWAP3 SWAP2 SWAP1 PUSH2 0xF5E JUMP JUMPDEST PUSH1 0x40 MLOAD DUP1 SWAP2 SUB SWAP1 RETURN JUMPDEST CALLVALUE DUP1 ISZERO PUSH2 0x219 JUMPI PUSH1 0x0 DUP1 REVERT JUMPDEST POP PUSH2 0x222 PUSH2 0x7FA JUMP JUMPDEST PUSH1 0x40 MLOAD PUSH2 0x22F SWAP2 SWAP1 PUSH2 0xFFC JUMP JUMPDEST PUSH1 0x40 MLOAD DUP1 SWAP2 SUB SWAP1 RETURN JUMPDEST CALLVALUE DUP1 ISZERO PUSH2 0x244 JUMPI PUSH1 0x0 DUP1 REVERT JUMPDEST POP PUSH2 0x24D PUSH2 0x822 JUMP JUMPDEST PUSH1 0x40 MLOAD PUSH2 0x25A SWAP2 SWAP1 PUSH2 0xFFC JUMP JUMPDEST PUSH1 0x40 MLOAD DUP1 SWAP2 SUB SWAP1 RETURN JUMPDEST CALLVALUE DUP1 ISZERO PUSH2 0x26F JUMPI PUSH1 0x0 DUP1 REVERT JUMPDEST POP PUSH2 0x278 PUSH2 0x82F JUMP JUMPDEST PUSH1 0x40 MLOAD PUSH2 0x285 SWAP2 SWAP1 PUSH2 0xFFC JUMP JUMPDEST PUSH1 0x40 MLOAD DUP1 SWAP2 SUB SWAP1 RETURN JUMPDEST CALLVALUE DUP1 ISZERO PUSH2 0x29A JUMPI PUSH1 0x0 DUP1 REVERT JUMPDEST POP PUSH2 0x2B5 PUSH1 0x4 DUP1 CALLDATASIZE SUB DUP2 ADD SWAP1 PUSH2 0x2B0 SWAP2 SWAP1 PUSH2 0xD7B JUMP JUMPDEST PUSH2 0x857 JUMP JUMPDEST PUSH1 0x40 MLOAD PUSH2 0x2C2 SWAP2 SWAP1 PUSH2 0xF1A JUMP JUMPDEST PUSH1 0x40 MLOAD DUP1 SWAP2 SUB SWAP1 RETURN JUMPDEST CALLVALUE DUP1 ISZERO PUSH2 0x2D7 JUMPI PUSH1 0x0 DUP1 REVERT JUMPDEST POP PUSH2 0x2E0 PUSH2 0x89E JUMP JUMPDEST PUSH1 0x40 MLOAD PUSH2 0x2ED SWAP2 SWAP1 PUSH2 0xFFC JUMP JUMPDEST PUSH1 0x40 MLOAD DUP1 SWAP2 SUB SWAP1 RETURN JUMPDEST PUSH1 0x0 PUSH1 0x1 PUSH1 0x14 SWAP1 SLOAD SWAP1 PUSH2 0x100 EXP SWAP1 DIV PUSH1 0xFF AND SWAP1 POP SWAP1 JUMP JUMPDEST PUSH32 0x0 PUSH20 0xFFFFFFFFFFFFFFFFFFFFFFFFFFFFFFFFFFFFFFFF AND CALLER PUSH20 0xFFFFFFFFFFFFFFFFFFFFFFFFFFFFFFFFFFFFFFFF AND EQ PUSH2 0x3BF JUMPI CALLER PUSH32 0x0 PUSH1 0x40 MLOAD PUSH32 0x1CF993F400000000000000000000000000000000000000000000000000000000 DUP2 MSTORE PUSH1 0x4 ADD PUSH2 0x3B6 SWAP3 SWAP2 SWAP1 PUSH2 0xF35 JUMP JUMPDEST PUSH1 0x40 MLOAD DUP1 SWAP2 SUB SWAP1 REVERT JUMPDEST PUSH2 0x3C9 DUP3 DUP3 PUSH2 0x8AA JUMP JUMPDEST POP POP JUMP JUMPDEST PUSH32 0x0 CALLVALUE LT ISZERO PUSH2 0x427 JUMPI PUSH1 0x40 MLOAD PUSH32 0xBD4E069500000000000000000000000000000000000000000000000000000000 DUP2 MSTORE PUSH1 0x4 ADD PUSH1 0x40 MLOAD DUP1 SWAP2 SUB SWAP1 REVERT JUMPDEST PUSH1 0x0 PUSH1 0x1 DUP2 GT ISZERO PUSH2 0x43B JUMPI PUSH2 0x43A PUSH2 0x12D6 JUMP JUMPDEST JUMPDEST PUSH1 0x1 PUSH1 0x14 SWAP1 SLOAD SWAP1 PUSH2 0x100 EXP SWAP1 DIV PUSH1 0xFF AND PUSH1 0x1 DUP2 GT ISZERO PUSH2 0x45D JUMPI PUSH2 0x45C PUSH2 0x12D6 JUMP JUMPDEST JUMPDEST EQ PUSH2 0x494 JUMPI PUSH1 0x40 MLOAD PUSH32 0x1425571C00000000000000000000000000000000000000000000000000000000 DUP2 MSTORE PUSH1 0x4 ADD PUSH1 0x40 MLOAD DUP1 SWAP2 SUB SWAP1 REVERT JUMPDEST PUSH1 0x0 CALLER SWAP1 DUP1 PUSH1 0x1 DUP2 SLOAD ADD DUP1 DUP3 SSTORE DUP1 SWAP2 POP POP PUSH1 0x1 SWAP1 SUB SWAP1 PUSH1 0x0 MSTORE PUSH1 0x20 PUSH1 0x0 KECCAK256 ADD PUSH1 0x0 SWAP1 SWAP2 SWAP1 SWAP2 SWAP1 SWAP2 PUSH2 0x100 EXP DUP2 SLOAD DUP2 PUSH20 0xFFFFFFFFFFFFFFFFFFFFFFFFFFFFFFFFFFFFFFFF MUL NOT AND SWAP1 DUP4 PUSH20 0xFFFFFFFFFFFFFFFFFFFFFFFFFFFFFFFFFFFFFFFF AND MUL OR SWAP1 SSTORE POP CALLER PUSH20 0xFFFFFFFFFFFFFFFFFFFFFFFFFFFFFFFFFFFFFFFF AND PUSH32 0x805E1D667BDDB8A95F0F09880CF94F403FB596CE79928D9F29B74203BA284D4 PUSH1 0x40 MLOAD PUSH1 0x40 MLOAD DUP1 SWAP2 SUB SWAP1 LOG2 JUMP JUMPDEST PUSH1 0x0 PUSH1 0x2 SLOAD SWAP1 POP SWAP1 JUMP JUMPDEST PUSH1 0x0 PUSH2 0x560 PUSH1 0x40 MLOAD DUP1 PUSH1 0x20 ADD PUSH1 0x40 MSTORE DUP1 PUSH1 0x0 DUP2 MSTORE POP PUSH2 0x74D JUMP JUMPDEST POP SWAP1 POP DUP1 PUSH2 0x5CF JUMPI SELFBALANCE PUSH1 0x0 DUP1 SLOAD SWAP1 POP PUSH1 0x1 PUSH1 0x14 SWAP1 SLOAD SWAP1 PUSH2 0x100 EXP SWAP1 DIV PUSH1 0xFF AND PUSH1 0x1 DUP2 GT ISZERO PUSH2 0x591 JUMPI PUSH2 0x590 PUSH2 0x12D6 JUMP JUMPDEST JUMPDEST PUSH1 0x40 MLOAD PUSH32 0x584327AA00000000000000000000000000000000000000000000000000000000 DUP2 MSTORE PUSH1 0x4 ADD PUSH2 0x5C6 SWAP4 SWAP3 SWAP2 SWAP1 PUSH2 0x1017 JUMP JUMPDEST PUSH1 0x40 MLOAD DUP1 SWAP2 SUB SWAP1 REVERT JUMPDEST PUSH1 0x1 DUP1 PUSH1 0x14 PUSH2 0x100 EXP DUP2 SLOAD DUP2 PUSH1 0xFF MUL NOT AND SWAP1 DUP4 PUSH1 0x1 DUP2 GT ISZERO PUSH2 0x5F4 JUMPI PUSH2 0x5F3 PUSH2 0x12D6 JUMP JUMPDEST JUMPDEST MUL OR SWAP1 SSTORE POP PUSH32 0x0 PUSH20 0xFFFFFFFFFFFFFFFFFFFFFFFFFFFFFFFFFFFFFFFF AND PUSH4 0x5D3B1D30 PUSH32 0x0 PUSH32 0x0 PUSH1 0x3 PUSH32 0x0 PUSH1 0x1 PUSH1 0x40 MLOAD DUP7 PUSH4 0xFFFFFFFF AND PUSH1 0xE0 SHL DUP2 MSTORE PUSH1 0x4 ADD PUSH2 0x6BC SWAP6 SWAP5 SWAP4 SWAP3 SWAP2 SWAP1 PUSH2 0xF8E JUMP JUMPDEST PUSH1 0x20 PUSH1 0x40 MLOAD DUP1 DUP4 SUB DUP2 PUSH1 0x0 DUP8 DUP1 EXTCODESIZE ISZERO DUP1 ISZERO PUSH2 0x6D6 JUMPI PUSH1 0x0 DUP1 REVERT JUMPDEST POP GAS CALL ISZERO DUP1 ISZERO PUSH2 0x6EA JUMPI RETURNDATASIZE PUSH1 0x0 DUP1 RETURNDATACOPY RETURNDATASIZE PUSH1 0x0 REVERT JUMPDEST POP POP POP POP PUSH1 0x40 MLOAD RETURNDATASIZE PUSH1 0x1F NOT PUSH1 0x1F DUP3 ADD AND DUP3 ADD DUP1 PUSH1 0x40 MSTORE POP DUP2 ADD SWAP1 PUSH2 0x70E SWAP2 SWAP1 PUSH2 0xDA8 JUMP JUMPDEST POP POP POP POP JUMP JUMPDEST PUSH1 0x0 PUSH1 0x1 PUSH1 0x0 SWAP1 SLOAD SWAP1 PUSH2 0x100 EXP SWAP1 DIV PUSH20 0xFFFFFFFFFFFFFFFFFFFFFFFFFFFFFFFFFFFFFFFF AND SWAP1 POP SWAP1 JUMP JUMPDEST PUSH1 0x0 PUSH1 0x1 PUSH4 0xFFFFFFFF AND SWAP1 POP SWAP1 JUMP JUMPDEST PUSH1 0x0 PUSH1 0x60 PUSH1 0x0 PUSH1 0x1 PUSH1 0x14 SWAP1 SLOAD SWAP1 PUSH2 0x100 EXP SWAP1 DIV PUSH1 0xFF AND PUSH1 0x1 DUP2 GT ISZERO PUSH2 0x775 JUMPI PUSH2 0x774 PUSH2 0x12D6 JUMP JUMPDEST JUMPDEST PUSH1 0x0 PUSH1 0x1 DUP2 GT ISZERO PUSH2 0x789 JUMPI PUSH2 0x788 PUSH2 0x12D6 JUMP JUMPDEST JUMPDEST EQ SWAP1 POP PUSH1 0x0 PUSH32 0x0 PUSH1 0x2 SLOAD TIMESTAMP PUSH2 0x7BD SWAP2 SWAP1 PUSH2 0x10F7 JUMP JUMPDEST GT SWAP1 POP PUSH1 0x0 DUP1 PUSH1 0x0 DUP1 SLOAD SWAP1 POP GT SWAP1 POP PUSH1 0x0 DUP1 SELFBALANCE GT SWAP1 POP DUP4 DUP1 ISZERO PUSH2 0x7DD JUMPI POP DUP3 JUMPDEST DUP1 ISZERO PUSH2 0x7E6 JUMPI POP DUP2 JUMPDEST DUP1 ISZERO PUSH2 0x7EF JUMPI POP DUP1 JUMPDEST SWAP6 POP POP POP POP POP SWAP2 POP SWAP2 JUMP JUMPDEST PUSH1 0x0 PUSH32 0x0 SWAP1 POP SWAP1 JUMP JUMPDEST PUSH1 0x0 PUSH1 0x3 PUSH2 0xFFFF AND SWAP1 POP SWAP1 JUMP JUMPDEST PUSH1 0x0 PUSH32 0x0 SWAP1 POP SWAP1 JUMP JUMPDEST PUSH1 0x0 DUP1 DUP3 DUP2 SLOAD DUP2 LT PUSH2 0x86C JUMPI PUSH2 0x86B PUSH2 0x1305 JUMP JUMPDEST JUMPDEST SWAP1 PUSH1 0x0 MSTORE PUSH1 0x20 PUSH1 0x0 KECCAK256 ADD PUSH1 0x0 SWAP1 SLOAD SWAP1 PUSH2 0x100 EXP SWAP1 DIV PUSH20 0xFFFFFFFFFFFFFFFFFFFFFFFFFFFFFFFFFFFFFFFF AND SWAP1 POP SWAP2 SWAP1 POP JUMP JUMPDEST PUSH1 0x0 DUP1 DUP1 SLOAD SWAP1 POP SWAP1 POP SWAP1 JUMP JUMPDEST PUSH1 0x0 DUP1 DUP1 SLOAD SWAP1 POP DUP3 PUSH1 0x0 DUP2 MLOAD DUP2 LT PUSH2 0x8C5 JUMPI PUSH2 0x8C4 PUSH2 0x1305 JUMP JUMPDEST JUMPDEST PUSH1 0x20 MUL PUSH1 0x20 ADD ADD MLOAD PUSH2 0x8D7 SWAP2 SWAP1 PUSH2 0x1247 JUMP JUMPDEST SWAP1 POP PUSH1 0x0 DUP1 DUP3 DUP2 SLOAD DUP2 LT PUSH2 0x8EE JUMPI PUSH2 0x8ED PUSH2 0x1305 JUMP JUMPDEST JUMPDEST SWAP1 PUSH1 0x0 MSTORE PUSH1 0x20 PUSH1 0x0 KECCAK256 ADD PUSH1 0x0 SWAP1 SLOAD SWAP1 PUSH2 0x100 EXP SWAP1 DIV PUSH20 0xFFFFFFFFFFFFFFFFFFFFFFFFFFFFFFFFFFFFFFFF AND SWAP1 POP DUP1 PUSH1 0x1 PUSH1 0x0 PUSH2 0x100 EXP DUP2 SLOAD DUP2 PUSH20 0xFFFFFFFFFFFFFFFFFFFFFFFFFFFFFFFFFFFFFFFF MUL NOT AND SWAP1 DUP4 PUSH20 0xFFFFFFFFFFFFFFFFFFFFFFFFFFFFFFFFFFFFFFFF AND MUL OR SWAP1 SSTORE POP PUSH1 0x0 PUSH8 0xFFFFFFFFFFFFFFFF DUP2 GT ISZERO PUSH2 0x977 JUMPI PUSH2 0x976 PUSH2 0x1334 JUMP JUMPDEST JUMPDEST PUSH1 0x40 MLOAD SWAP1 DUP1 DUP3 MSTORE DUP1 PUSH1 0x20 MUL PUSH1 0x20 ADD DUP3 ADD PUSH1 0x40 MSTORE DUP1 ISZERO PUSH2 0x9A5 JUMPI DUP2 PUSH1 0x20 ADD PUSH1 0x20 DUP3 MUL DUP1 CALLDATASIZE DUP4 CALLDATACOPY DUP1 DUP3 ADD SWAP2 POP POP SWAP1 POP JUMPDEST POP PUSH1 0x0 SWAP1 DUP1 MLOAD SWAP1 PUSH1 0x20 ADD SWAP1 PUSH2 0x9BB SWAP3 SWAP2 SWAP1 PUSH2 0xAB0 JUMP JUMPDEST POP TIMESTAMP PUSH1 0x2 DUP2 SWAP1 SSTORE POP PUSH1 0x0 DUP2 PUSH20 0xFFFFFFFFFFFFFFFFFFFFFFFFFFFFFFFFFFFFFFFF AND SELFBALANCE PUSH1 0x40 MLOAD PUSH2 0x9E9 SWAP1 PUSH2 0xF05 JUMP JUMPDEST PUSH1 0x0 PUSH1 0x40 MLOAD DUP1 DUP4 SUB DUP2 DUP6 DUP8 GAS CALL SWAP3 POP POP POP RETURNDATASIZE DUP1 PUSH1 0x0 DUP2 EQ PUSH2 0xA26 JUMPI PUSH1 0x40 MLOAD SWAP2 POP PUSH1 0x1F NOT PUSH1 0x3F RETURNDATASIZE ADD AND DUP3 ADD PUSH1 0x40 MSTORE RETURNDATASIZE DUP3 MSTORE RETURNDATASIZE PUSH1 0x0 PUSH1 0x20 DUP5 ADD RETURNDATACOPY PUSH2 0xA2B JUMP JUMPDEST PUSH1 0x60 SWAP2 POP JUMPDEST POP POP SWAP1 POP DUP1 PUSH2 0xA66 JUMPI PUSH1 0x40 MLOAD PUSH32 0xA1D04B3900000000000000000000000000000000000000000000000000000000 DUP2 MSTORE PUSH1 0x4 ADD PUSH1 0x40 MLOAD DUP1 SWAP2 SUB SWAP1 REVERT JUMPDEST DUP2 PUSH20 0xFFFFFFFFFFFFFFFFFFFFFFFFFFFFFFFFFFFFFFFF AND PUSH32 0x5B690EC4A06FE979403046EAEEA5B3CE38524683C3001F662C8B5A829632F7DF PUSH1 0x40 MLOAD PUSH1 0x40 MLOAD DUP1 SWAP2 SUB SWAP1 LOG2 POP POP POP POP POP JUMP JUMPDEST DUP3 DUP1 SLOAD DUP3 DUP3 SSTORE SWAP1 PUSH1 0x0 MSTORE PUSH1 0x20 PUSH1 0x0 KECCAK256 SWAP1 DUP2 ADD SWAP3 DUP3 ISZERO PUSH2 0xB29 JUMPI SWAP2 PUSH1 0x20 MUL DUP3 ADD JUMPDEST DUP3 DUP2 GT ISZERO PUSH2 0xB28 JUMPI DUP3 MLOAD DUP3 PUSH1 0x0 PUSH2 0x100 EXP DUP2 SLOAD DUP2 PUSH20 0xFFFFFFFFFFFFFFFFFFFFFFFFFFFFFFFFFFFFFFFF MUL NOT AND SWAP1 DUP4 PUSH20 0xFFFFFFFFFFFFFFFFFFFFFFFFFFFFFFFFFFFFFFFF AND MUL OR SWAP1 SSTORE POP SWAP2 PUSH1 0x20 ADD SWAP2 SWAP1 PUSH1 0x1 ADD SWAP1 PUSH2 0xAD0 JUMP JUMPDEST JUMPDEST POP SWAP1 POP PUSH2 0xB36 SWAP2 SWAP1 PUSH2 0xB3A JUMP JUMPDEST POP SWAP1 JUMP JUMPDEST JUMPDEST DUP1 DUP3 GT ISZERO PUSH2 0xB53 JUMPI PUSH1 0x0 DUP2 PUSH1 0x0 SWAP1 SSTORE POP PUSH1 0x1 ADD PUSH2 0xB3B JUMP JUMPDEST POP SWAP1 JUMP JUMPDEST PUSH1 0x0 PUSH2 0xB6A PUSH2 0xB65 DUP5 PUSH2 0x1073 JUMP JUMPDEST PUSH2 0x104E JUMP JUMPDEST SWAP1 POP DUP1 DUP4 DUP3 MSTORE PUSH1 0x20 DUP3 ADD SWAP1 POP DUP3 DUP6 PUSH1 0x20 DUP7 MUL DUP3 ADD GT ISZERO PUSH2 0xB8D JUMPI PUSH2 0xB8C PUSH2 0x136D JUMP JUMPDEST JUMPDEST PUSH1 0x0 JUMPDEST DUP6 DUP2 LT ISZERO PUSH2 0xBBD JUMPI DUP2 PUSH2 0xBA3 DUP9 DUP3 PUSH2 0xCBB JUMP JUMPDEST DUP5 MSTORE PUSH1 0x20 DUP5 ADD SWAP4 POP PUSH1 0x20 DUP4 ADD SWAP3 POP POP PUSH1 0x1 DUP2 ADD SWAP1 POP PUSH2 0xB90 JUMP JUMPDEST POP POP POP SWAP4 SWAP3 POP POP POP JUMP JUMPDEST PUSH1 0x0 PUSH2 0xBDA PUSH2 0xBD5 DUP5 PUSH2 0x109F JUMP JUMPDEST PUSH2 0x104E JUMP JUMPDEST SWAP1 POP DUP3 DUP2 MSTORE PUSH1 0x20 DUP2 ADD DUP5 DUP5 DUP5 ADD GT ISZERO PUSH2 0xBF6 JUMPI PUSH2 0xBF5 PUSH2 0x1372 JUMP JUMPDEST JUMPDEST PUSH2 0xC01 DUP5 DUP3 DUP6 PUSH2 0x11D4 JUMP JUMPDEST POP SWAP4 SWAP3 POP POP POP JUMP JUMPDEST PUSH1 0x0 DUP3 PUSH1 0x1F DUP4 ADD SLT PUSH2 0xC1E JUMPI PUSH2 0xC1D PUSH2 0x1368 JUMP JUMPDEST JUMPDEST DUP2 CALLDATALOAD PUSH2 0xC2E DUP5 DUP3 PUSH1 0x20 DUP7 ADD PUSH2 0xB57 JUMP JUMPDEST SWAP2 POP POP SWAP3 SWAP2 POP POP JUMP JUMPDEST PUSH1 0x0 DUP1 DUP4 PUSH1 0x1F DUP5 ADD SLT PUSH2 0xC4D JUMPI PUSH2 0xC4C PUSH2 0x1368 JUMP JUMPDEST JUMPDEST DUP3 CALLDATALOAD SWAP1 POP PUSH8 0xFFFFFFFFFFFFFFFF DUP2 GT ISZERO PUSH2 0xC6A JUMPI PUSH2 0xC69 PUSH2 0x1363 JUMP JUMPDEST JUMPDEST PUSH1 0x20 DUP4 ADD SWAP2 POP DUP4 PUSH1 0x1 DUP3 MUL DUP4 ADD GT ISZERO PUSH2 0xC86 JUMPI PUSH2 0xC85 PUSH2 0x136D JUMP JUMPDEST JUMPDEST SWAP3 POP SWAP3 SWAP1 POP JUMP JUMPDEST PUSH1 0x0 DUP3 PUSH1 0x1F DUP4 ADD SLT PUSH2 0xCA2 JUMPI PUSH2 0xCA1 PUSH2 0x1368 JUMP JUMPDEST JUMPDEST DUP2 CALLDATALOAD PUSH2 0xCB2 DUP5 DUP3 PUSH1 0x20 DUP7 ADD PUSH2 0xBC7 JUMP JUMPDEST SWAP2 POP POP SWAP3 SWAP2 POP POP JUMP JUMPDEST PUSH1 0x0 DUP2 CALLDATALOAD SWAP1 POP PUSH2 0xCCA DUP2 PUSH2 0x13A9 JUMP JUMPDEST SWAP3 SWAP2 POP POP JUMP JUMPDEST PUSH1 0x0 DUP2 MLOAD SWAP1 POP PUSH2 0xCDF DUP2 PUSH2 0x13A9 JUMP JUMPDEST SWAP3 SWAP2 POP POP JUMP JUMPDEST PUSH1 0x0 DUP1 PUSH1 0x20 DUP4 DUP6 SUB SLT ISZERO PUSH2 0xCFC JUMPI PUSH2 0xCFB PUSH2 0x137C JUMP JUMPDEST JUMPDEST PUSH1 0x0 DUP4 ADD CALLDATALOAD PUSH8 0xFFFFFFFFFFFFFFFF DUP2 GT ISZERO PUSH2 0xD1A JUMPI PUSH2 0xD19 PUSH2 0x1377 JUMP JUMPDEST JUMPDEST PUSH2 0xD26 DUP6 DUP3 DUP7 ADD PUSH2 0xC37 JUMP JUMPDEST SWAP3 POP SWAP3 POP POP SWAP3 POP SWAP3 SWAP1 POP JUMP JUMPDEST PUSH1 0x0 PUSH1 0x20 DUP3 DUP5 SUB SLT ISZERO PUSH2 0xD48 JUMPI PUSH2 0xD47 PUSH2 0x137C JUMP JUMPDEST JUMPDEST PUSH1 0x0 DUP3 ADD CALLDATALOAD PUSH8 0xFFFFFFFFFFFFFFFF DUP2 GT ISZERO PUSH2 0xD66 JUMPI PUSH2 0xD65 PUSH2 0x1377 JUMP JUMPDEST JUMPDEST PUSH2 0xD72 DUP5 DUP3 DUP6 ADD PUSH2 0xC8D JUMP JUMPDEST SWAP2 POP POP SWAP3 SWAP2 POP POP JUMP JUMPDEST PUSH1 0x0 PUSH1 0x20 DUP3 DUP5 SUB SLT ISZERO PUSH2 0xD91 JUMPI PUSH2 0xD90 PUSH2 0x137C JUMP JUMPDEST JUMPDEST PUSH1 0x0 PUSH2 0xD9F DUP5 DUP3 DUP6 ADD PUSH2 0xCBB JUMP JUMPDEST SWAP2 POP POP SWAP3 SWAP2 POP POP JUMP JUMPDEST PUSH1 0x0 PUSH1 0x20 DUP3 DUP5 SUB SLT ISZERO PUSH2 0xDBE JUMPI PUSH2 0xDBD PUSH2 0x137C JUMP JUMPDEST JUMPDEST PUSH1 0x0 PUSH2 0xDCC DUP5 DUP3 DUP6 ADD PUSH2 0xCD0 JUMP JUMPDEST SWAP2 POP POP SWAP3 SWAP2 POP POP JUMP JUMPDEST PUSH1 0x0 DUP1 PUSH1 0x40 DUP4 DUP6 SUB SLT ISZERO PUSH2 0xDEC JUMPI PUSH2 0xDEB PUSH2 0x137C JUMP JUMPDEST JUMPDEST PUSH1 0x0 PUSH2 0xDFA DUP6 DUP3 DUP7 ADD PUSH2 0xCBB JUMP JUMPDEST SWAP3 POP POP PUSH1 0x20 DUP4 ADD CALLDATALOAD PUSH8 0xFFFFFFFFFFFFFFFF DUP2 GT ISZERO PUSH2 0xE1B JUMPI PUSH2 0xE1A PUSH2 0x1377 JUMP JUMPDEST JUMPDEST PUSH2 0xE27 DUP6 DUP3 DUP7 ADD PUSH2 0xC09 JUMP JUMPDEST SWAP2 POP POP SWAP3 POP SWAP3 SWAP1 POP JUMP JUMPDEST PUSH2 0xE3A DUP2 PUSH2 0x112B JUMP JUMPDEST DUP3 MSTORE POP POP JUMP JUMPDEST PUSH2 0xE49 DUP2 PUSH2 0x113D JUMP JUMPDEST DUP3 MSTORE POP POP JUMP JUMPDEST PUSH2 0xE58 DUP2 PUSH2 0x1149 JUMP JUMPDEST DUP3 MSTORE POP POP JUMP JUMPDEST PUSH1 0x0 PUSH2 0xE69 DUP3 PUSH2 0x10D0 JUMP JUMPDEST PUSH2 0xE73 DUP2 DUP6 PUSH2 0x10DB JUMP JUMPDEST SWAP4 POP PUSH2 0xE83 DUP2 DUP6 PUSH1 0x20 DUP7 ADD PUSH2 0x11E3 JUMP JUMPDEST PUSH2 0xE8C DUP2 PUSH2 0x1381 JUMP JUMPDEST DUP5 ADD SWAP2 POP POP SWAP3 SWAP2 POP POP JUMP JUMPDEST PUSH2 0xEA0 DUP2 PUSH2 0x11C2 JUMP JUMPDEST DUP3 MSTORE POP POP JUMP JUMPDEST PUSH1 0x0 PUSH2 0xEB3 PUSH1 0x0 DUP4 PUSH2 0x10EC JUMP JUMPDEST SWAP2 POP PUSH2 0xEBE DUP3 PUSH2 0x1392 JUMP JUMPDEST PUSH1 0x0 DUP3 ADD SWAP1 POP SWAP2 SWAP1 POP JUMP JUMPDEST PUSH2 0xED2 DUP2 PUSH2 0x1166 JUMP JUMPDEST DUP3 MSTORE POP POP JUMP JUMPDEST PUSH2 0xEE1 DUP2 PUSH2 0x1194 JUMP JUMPDEST DUP3 MSTORE POP POP JUMP JUMPDEST PUSH2 0xEF0 DUP2 PUSH2 0x119E JUMP JUMPDEST DUP3 MSTORE POP POP JUMP JUMPDEST PUSH2 0xEFF DUP2 PUSH2 0x11AE JUMP JUMPDEST DUP3 MSTORE POP POP JUMP JUMPDEST PUSH1 0x0 PUSH2 0xF10 DUP3 PUSH2 0xEA6 JUMP JUMPDEST SWAP2 POP DUP2 SWAP1 POP SWAP2 SWAP1 POP JUMP JUMPDEST PUSH1 0x0 PUSH1 0x20 DUP3 ADD SWAP1 POP PUSH2 0xF2F PUSH1 0x0 DUP4 ADD DUP5 PUSH2 0xE31 JUMP JUMPDEST SWAP3 SWAP2 POP POP JUMP JUMPDEST PUSH1 0x0 PUSH1 0x40 DUP3 ADD SWAP1 POP PUSH2 0xF4A PUSH1 0x0 DUP4 ADD DUP6 PUSH2 0xE31 JUMP JUMPDEST PUSH2 0xF57 PUSH1 0x20 DUP4 ADD DUP5 PUSH2 0xE31 JUMP JUMPDEST SWAP4 SWAP3 POP POP POP JUMP JUMPDEST PUSH1 0x0 PUSH1 0x40 DUP3 ADD SWAP1 POP PUSH2 0xF73 PUSH1 0x0 DUP4 ADD DUP6 PUSH2 0xE40 JUMP JUMPDEST DUP2 DUP2 SUB PUSH1 0x20 DUP4 ADD MSTORE PUSH2 0xF85 DUP2 DUP5 PUSH2 0xE5E JUMP JUMPDEST SWAP1 POP SWAP4 SWAP3 POP POP POP JUMP JUMPDEST PUSH1 0x0 PUSH1 0xA0 DUP3 ADD SWAP1 POP PUSH2 0xFA3 PUSH1 0x0 DUP4 ADD DUP9 PUSH2 0xE4F JUMP JUMPDEST PUSH2 0xFB0 PUSH1 0x20 DUP4 ADD DUP8 PUSH2 0xEF6 JUMP JUMPDEST PUSH2 0xFBD PUSH1 0x40 DUP4 ADD DUP7 PUSH2 0xEC9 JUMP JUMPDEST PUSH2 0xFCA PUSH1 0x60 DUP4 ADD DUP6 PUSH2 0xEE7 JUMP JUMPDEST PUSH2 0xFD7 PUSH1 0x80 DUP4 ADD DUP5 PUSH2 0xEE7 JUMP JUMPDEST SWAP7 SWAP6 POP POP POP POP POP POP JUMP JUMPDEST PUSH1 0x0 PUSH1 0x20 DUP3 ADD SWAP1 POP PUSH2 0xFF6 PUSH1 0x0 DUP4 ADD DUP5 PUSH2 0xE97 JUMP JUMPDEST SWAP3 SWAP2 POP POP JUMP JUMPDEST PUSH1 0x0 PUSH1 0x20 DUP3 ADD SWAP1 POP PUSH2 0x1011 PUSH1 0x0 DUP4 ADD DUP5 PUSH2 0xED8 JUMP JUMPDEST SWAP3 SWAP2 POP POP JUMP JUMPDEST PUSH1 0x0 PUSH1 0x60 DUP3 ADD SWAP1 POP PUSH2 0x102C PUSH1 0x0 DUP4 ADD DUP7 PUSH2 0xED8 JUMP JUMPDEST PUSH2 0x1039 PUSH1 0x20 DUP4 ADD DUP6 PUSH2 0xED8 JUMP JUMPDEST PUSH2 0x1046 PUSH1 0x40 DUP4 ADD DUP5 PUSH2 0xED8 JUMP JUMPDEST SWAP5 SWAP4 POP POP POP POP JUMP JUMPDEST PUSH1 0x0 PUSH2 0x1058 PUSH2 0x1069 JUMP JUMPDEST SWAP1 POP PUSH2 0x1064 DUP3 DUP3 PUSH2 0x1216 JUMP JUMPDEST SWAP2 SWAP1 POP JUMP JUMPDEST PUSH1 0x0 PUSH1 0x40 MLOAD SWAP1 POP SWAP1 JUMP JUMPDEST PUSH1 0x0 PUSH8 0xFFFFFFFFFFFFFFFF DUP3 GT ISZERO PUSH2 0x108E JUMPI PUSH2 0x108D PUSH2 0x1334 JUMP JUMPDEST JUMPDEST PUSH1 0x20 DUP3 MUL SWAP1 POP PUSH1 0x20 DUP2 ADD SWAP1 POP SWAP2 SWAP1 POP JUMP JUMPDEST PUSH1 0x0 PUSH8 0xFFFFFFFFFFFFFFFF DUP3 GT ISZERO PUSH2 0x10BA JUMPI PUSH2 0x10B9 PUSH2 0x1334 JUMP JUMPDEST JUMPDEST PUSH2 0x10C3 DUP3 PUSH2 0x1381 JUMP JUMPDEST SWAP1 POP PUSH1 0x20 DUP2 ADD SWAP1 POP SWAP2 SWAP1 POP JUMP JUMPDEST PUSH1 0x0 DUP2 MLOAD SWAP1 POP SWAP2 SWAP1 POP JUMP JUMPDEST PUSH1 0x0 DUP3 DUP3 MSTORE PUSH1 0x20 DUP3 ADD SWAP1 POP SWAP3 SWAP2 POP POP JUMP JUMPDEST PUSH1 0x0 DUP2 SWAP1 POP SWAP3 SWAP2 POP POP JUMP JUMPDEST PUSH1 0x0 PUSH2 0x1102 DUP3 PUSH2 0x1194 JUMP JUMPDEST SWAP2 POP PUSH2 0x110D DUP4 PUSH2 0x1194 JUMP JUMPDEST SWAP3 POP DUP3 DUP3 LT ISZERO PUSH2 0x1120 JUMPI PUSH2 0x111F PUSH2 0x1278 JUMP JUMPDEST JUMPDEST DUP3 DUP3 SUB SWAP1 POP SWAP3 SWAP2 POP POP JUMP JUMPDEST PUSH1 0x0 PUSH2 0x1136 DUP3 PUSH2 0x1174 JUMP JUMPDEST SWAP1 POP SWAP2 SWAP1 POP JUMP JUMPDEST PUSH1 0x0 DUP2 ISZERO ISZERO SWAP1 POP SWAP2 SWAP1 POP JUMP JUMPDEST PUSH1 0x0 DUP2 SWAP1 POP SWAP2 SWAP1 POP JUMP JUMPDEST PUSH1 0x0 DUP2 SWAP1 POP PUSH2 0x1161 DUP3 PUSH2 0x1395 JUMP JUMPDEST SWAP2 SWAP1 POP JUMP JUMPDEST PUSH1 0x0 PUSH2 0xFFFF DUP3 AND SWAP1 POP SWAP2 SWAP1 POP JUMP JUMPDEST PUSH1 0x0 PUSH20 0xFFFFFFFFFFFFFFFFFFFFFFFFFFFFFFFFFFFFFFFF DUP3 AND SWAP1 POP SWAP2 SWAP1 POP JUMP JUMPDEST PUSH1 0x0 DUP2 SWAP1 POP SWAP2 SWAP1 POP JUMP JUMPDEST PUSH1 0x0 PUSH4 0xFFFFFFFF DUP3 AND SWAP1 POP SWAP2 SWAP1 POP JUMP JUMPDEST PUSH1 0x0 PUSH8 0xFFFFFFFFFFFFFFFF DUP3 AND SWAP1 POP SWAP2 SWAP1 POP JUMP JUMPDEST PUSH1 0x0 PUSH2 0x11CD DUP3 PUSH2 0x1153 JUMP JUMPDEST SWAP1 POP SWAP2 SWAP1 POP JUMP JUMPDEST DUP3 DUP2 DUP4 CALLDATACOPY PUSH1 0x0 DUP4 DUP4 ADD MSTORE POP POP POP JUMP JUMPDEST PUSH1 0x0 JUMPDEST DUP4 DUP2 LT ISZERO PUSH2 0x1201 JUMPI DUP1 DUP3 ADD MLOAD DUP2 DUP5 ADD MSTORE PUSH1 0x20 DUP2 ADD SWAP1 POP PUSH2 0x11E6 JUMP JUMPDEST DUP4 DUP2 GT ISZERO PUSH2 0x1210 JUMPI PUSH1 0x0 DUP5 DUP5 ADD MSTORE JUMPDEST POP POP POP POP JUMP JUMPDEST PUSH2 0x121F DUP3 PUSH2 0x1381 JUMP JUMPDEST DUP2 ADD DUP2 DUP2 LT PUSH8 0xFFFFFFFFFFFFFFFF DUP3 GT OR ISZERO PUSH2 0x123E JUMPI PUSH2 0x123D PUSH2 0x1334 JUMP JUMPDEST JUMPDEST DUP1 PUSH1 0x40 MSTORE POP POP POP JUMP JUMPDEST PUSH1 0x0 PUSH2 0x1252 DUP3 PUSH2 0x1194 JUMP JUMPDEST SWAP2 POP PUSH2 0x125D DUP4 PUSH2 0x1194 JUMP JUMPDEST SWAP3 POP DUP3 PUSH2 0x126D JUMPI PUSH2 0x126C PUSH2 0x12A7 JUMP JUMPDEST JUMPDEST DUP3 DUP3 MOD SWAP1 POP SWAP3 SWAP2 POP POP JUMP JUMPDEST PUSH32 0x4E487B7100000000000000000000000000000000000000000000000000000000 PUSH1 0x0 MSTORE PUSH1 0x11 PUSH1 0x4 MSTORE PUSH1 0x24 PUSH1 0x0 REVERT JUMPDEST PUSH32 0x4E487B7100000000000000000000000000000000000000000000000000000000 PUSH1 0x0 MSTORE PUSH1 0x12 PUSH1 0x4 MSTORE PUSH1 0x24 PUSH1 0x0 REVERT JUMPDEST PUSH32 0x4E487B7100000000000000000000000000000000000000000000000000000000 PUSH1 0x0 MSTORE PUSH1 0x21 PUSH1 0x4 MSTORE PUSH1 0x24 PUSH1 0x0 REVERT JUMPDEST PUSH32 0x4E487B7100000000000000000000000000000000000000000000000000000000 PUSH1 0x0 MSTORE PUSH1 0x32 PUSH1 0x4 MSTORE PUSH1 0x24 PUSH1 0x0 REVERT JUMPDEST PUSH32 0x4E487B7100000000000000000000000000000000000000000000000000000000 PUSH1 0x0 MSTORE PUSH1 0x41 PUSH1 0x4 MSTORE PUSH1 0x24 PUSH1 0x0 REVERT JUMPDEST PUSH1 0x0 DUP1 REVERT JUMPDEST PUSH1 0x0 DUP1 REVERT JUMPDEST PUSH1 0x0 DUP1 REVERT JUMPDEST PUSH1 0x0 DUP1 REVERT JUMPDEST PUSH1 0x0 DUP1 REVERT JUMPDEST PUSH1 0x0 DUP1 REVERT JUMPDEST PUSH1 0x0 PUSH1 0x1F NOT PUSH1 0x1F DUP4 ADD AND SWAP1 POP SWAP2 SWAP1 POP JUMP JUMPDEST POP JUMP JUMPDEST PUSH1 0x2 DUP2 LT PUSH2 0x13A6 JUMPI PUSH2 0x13A5 PUSH2 0x12D6 JUMP JUMPDEST JUMPDEST POP JUMP JUMPDEST PUSH2 0x13B2 DUP2 PUSH2 0x1194 JUMP JUMPDEST DUP2 EQ PUSH2 0x13BD JUMPI PUSH1 0x0 DUP1 REVERT JUMPDEST POP JUMP INVALID LOG2 PUSH5 0x6970667358 0x22 SLT KECCAK256 PUSH24 0x36E67B5CAA32FD1A36453C3E076997C07CA521D5FE4D9576 0xB9 0xE4 SWAP16 DUP3 0xE0 0xCC 0xAA PUSH5 0x736F6C6343 STOP ADDMOD SMOD STOP CALLER "},"gasEstimates":{"creation":{"codeDepositCost":"1022000","executionCost":"infinite","totalCost":"infinite"},"external":{"checkUpkeep(bytes)":"infinite","enterRaffle()":"infinite","getEntrancefee()":"infinite","getInterval()":"infinite","getLastTimestamp()":"2504","getNumWords()":"366","getNumberOfPlayers()":"2533","getPlayer(uint256)":"5033","getRaffleState()":"2619","getRecentWinner()":"2633","getRequestConfirmation()":"365","performUpkeep(bytes)":"infinite","rawFulfillRandomWords(uint256,uint256[])":"infinite"},"internal":{"fulfillRandomWords(uint256,uint256[] memory)":"infinite"}},"methodIdentifiers":{"checkUpkeep(bytes)":"6e04ff0d","enterRaffle()":"2cfcc539","getEntrancefee()":"d9dba732","getInterval()":"91ad27b4","getLastTimestamp()":"37899770","getNumWords()":"53a2c19a","getNumberOfPlayers()":"fd6673f5","getPlayer(uint256)":"e55ae4e8","getRaffleState()":"115cbaf5","getRecentWinner()":"473f1ddc","getRequestConfirmation()":"ca6a9ef8","performUpkeep(bytes)":"4585e33b","rawFulfillRandomWords(uint256,uint256[])":"1fe543e3"}},"storageLayout":{"storage":[{"astId":196,"contract":"contracts/Raffle.sol:Raffle","label":"s_players","offset":0,"slot":"0","type":"t_array(t_address_payable)dyn_storage"},{"astId":213,"contract":"contracts/Raffle.sol:Raffle","label":"s_recentWinner","offset":0,"slot":"1","type":"t_address"},{"astId":216,"contract":"contracts/Raffle.sol:Raffle","label":"s_raffleState","offset":20,"slot":"1","type":"t_enum(RaffleState)191"},{"astId":218,"contract":"contracts/Raffle.sol:Raffle","label":"s_lastTimestamp","offset":0,"slot":"2","type":"t_uint256"}],"types":{"t_address":{"encoding":"inplace","label":"address","numberOfBytes":"20"},"t_address_payable":{"encoding":"inplace","label":"address payable","numberOfBytes":"20"},"t_array(t_address_payable)dyn_storage":{"base":"t_address_payable","encoding":"dynamic_array","label":"address payable[]","numberOfBytes":"32"},"t_enum(RaffleState)191":{"encoding":"inplace","label":"enum Raffle.RaffleState","numberOfBytes":"1"},"t_uint256":{"encoding":"inplace","label":"uint256","numberOfBytes":"32"}}},"userdoc":{"kind":"user","methods":{},"version":1}}}}