{
  "_format": "hh-sol-artifact-1",
  "contractName": "Raffle",
  "sourceName": "contracts/Raffle.sol",
  "abi": [
    {
      "inputs": [
        {
          "internalType": "address",
          "name": "vrfCoordinatorV2",
          "type": "address"
        },
        {
          "internalType": "uint256",
          "name": "entrancefee",
          "type": "uint256"
        },
        {
          "internalType": "bytes32",
          "name": "gasLane",
          "type": "bytes32"
        },
        {
          "internalType": "uint64",
          "name": "subscriptionId",
          "type": "uint64"
        },
        {
          "internalType": "uint32",
          "name": "callbackGasLimit",
          "type": "uint32"
        },
        {
          "internalType": "uint256",
          "name": "interval",
          "type": "uint256"
        }
      ],
      "stateMutability": "nonpayable",
      "type": "constructor"
    },
    {
      "inputs": [
        {
          "internalType": "address",
          "name": "have",
          "type": "address"
        },
        {
          "internalType": "address",
          "name": "want",
          "type": "address"
        }
      ],
      "name": "OnlyCoordinatorCanFulfill",
      "type": "error"
    },
    {
      "inputs": [],
      "name": "Raffle__NotEnoughETHEntered",
      "type": "error"
    },
    {
      "inputs": [],
      "name": "Raffle__NotOpen",
      "type": "error"
    },
    {
      "inputs": [],
      "name": "Raffle__TransferFailed",
      "type": "error"
    },
    {
      "inputs": [
        {
          "internalType": "uint256",
          "name": "currentBalance",
          "type": "uint256"
        },
        {
          "internalType": "uint256",
          "name": "numPlayers",
          "type": "uint256"
        },
        {
          "internalType": "uint256",
          "name": "raffleState",
          "type": "uint256"
        }
      ],
      "name": "Raffle__UpkeepNotNeeded",
      "type": "error"
    },
    {
      "anonymous": false,
      "inputs": [
        {
          "indexed": true,
          "internalType": "address",
          "name": "player",
          "type": "address"
        }
      ],
      "name": "RaffleEnter",
      "type": "event"
    },
    {
      "anonymous": false,
      "inputs": [
        {
          "indexed": true,
          "internalType": "uint256",
          "name": "requestId",
          "type": "uint256"
        }
      ],
      "name": "RequestedRaffleWinner",
      "type": "event"
    },
    {
      "anonymous": false,
      "inputs": [
        {
          "indexed": true,
          "internalType": "address",
          "name": "winner",
          "type": "address"
        }
      ],
      "name": "WinnerPicked",
      "type": "event"
    },
    {
      "inputs": [
        {
          "internalType": "bytes",
          "name": "",
          "type": "bytes"
        }
      ],
      "name": "checkUpkeep",
      "outputs": [
        {
          "internalType": "bool",
          "name": "upkeepNeeded",
          "type": "bool"
        },
        {
          "internalType": "bytes",
          "name": "",
          "type": "bytes"
        }
      ],
      "stateMutability": "nonpayable",
      "type": "function"
    },
    {
      "inputs": [],
      "name": "enterRaffle",
      "outputs": [],
      "stateMutability": "payable",
      "type": "function"
    },
    {
      "inputs": [],
      "name": "getEntrancefee",
      "outputs": [
        {
          "internalType": "uint256",
          "name": "",
          "type": "uint256"
        }
      ],
      "stateMutability": "view",
      "type": "function"
    },
    {
      "inputs": [],
      "name": "getInterval",
      "outputs": [
        {
          "internalType": "uint256",
          "name": "",
          "type": "uint256"
        }
      ],
      "stateMutability": "view",
      "type": "function"
    },
    {
      "inputs": [],
      "name": "getLastTimestamp",
      "outputs": [
        {
          "internalType": "uint256",
          "name": "",
          "type": "uint256"
        }
      ],
      "stateMutability": "view",
      "type": "function"
    },
    {
      "inputs": [],
      "name": "getNumWords",
      "outputs": [
        {
          "internalType": "uint256",
          "name": "",
          "type": "uint256"
        }
      ],
      "stateMutability": "pure",
      "type": "function"
    },
    {
      "inputs": [],
      "name": "getNumberOfPlayers",
      "outputs": [
        {
          "internalType": "uint256",
          "name": "",
          "type": "uint256"
        }
      ],
      "stateMutability": "view",
      "type": "function"
    },
    {
      "inputs": [
        {
          "internalType": "uint256",
          "name": "index",
          "type": "uint256"
        }
      ],
      "name": "getPlayer",
      "outputs": [
        {
          "internalType": "address",
          "name": "",
          "type": "address"
        }
      ],
      "stateMutability": "view",
      "type": "function"
    },
    {
      "inputs": [],
      "name": "getRaffleState",
      "outputs": [
        {
          "internalType": "enum Raffle.RaffleState",
          "name": "",
          "type": "uint8"
        }
      ],
      "stateMutability": "view",
      "type": "function"
    },
    {
      "inputs": [],
      "name": "getRecentWinner",
      "outputs": [
        {
          "internalType": "address",
          "name": "",
          "type": "address"
        }
      ],
      "stateMutability": "view",
      "type": "function"
    },
    {
      "inputs": [],
      "name": "getRequestConfirmation",
      "outputs": [
        {
          "internalType": "uint256",
          "name": "",
          "type": "uint256"
        }
      ],
      "stateMutability": "pure",
      "type": "function"
    },
    {
      "inputs": [
        {
          "internalType": "bytes",
          "name": "",
          "type": "bytes"
        }
      ],
      "name": "performUpkeep",
      "outputs": [],
      "stateMutability": "nonpayable",
      "type": "function"
    },
    {
      "inputs": [
        {
          "internalType": "uint256",
          "name": "requestId",
          "type": "uint256"
        },
        {
          "internalType": "uint256[]",
          "name": "randomWords",
          "type": "uint256[]"
        }
      ],
      "name": "rawFulfillRandomWords",
      "outputs": [],
      "stateMutability": "nonpayable",
      "type": "function"
    }
  ],
  "bytecode": "0x6101606040523480156200001257600080fd5b50604051620017dd380380620017dd8339818101604052810190620000389190620001ad565b858073ffffffffffffffffffffffffffffffffffffffff1660808173ffffffffffffffffffffffffffffffffffffffff1660601b81525050508460a081815250508573ffffffffffffffffffffffffffffffffffffffff1660c08173ffffffffffffffffffffffffffffffffffffffff1660601b815250508360e081815250508267ffffffffffffffff166101008167ffffffffffffffff1660c01b815250508163ffffffff166101208163ffffffff1660e01b815250506000600160146101000a81548160ff02191690836001811115620001195762000118620002b5565b5b0217905550426002819055508061014081815250505050505050506200036b565b6000815190506200014b81620002e9565b92915050565b600081519050620001628162000303565b92915050565b60008151905062000179816200031d565b92915050565b600081519050620001908162000337565b92915050565b600081519050620001a78162000351565b92915050565b60008060008060008060c08789031215620001cd57620001cc620002e4565b5b6000620001dd89828a016200013a565b9650506020620001f089828a0162000168565b95505060406200020389828a0162000151565b94505060606200021689828a0162000196565b93505060806200022989828a016200017f565b92505060a06200023c89828a0162000168565b9150509295509295509295565b6000620002568262000267565b9050919050565b6000819050919050565b600073ffffffffffffffffffffffffffffffffffffffff82169050919050565b6000819050919050565b600063ffffffff82169050919050565b600067ffffffffffffffff82169050919050565b7f4e487b7100000000000000000000000000000000000000000000000000000000600052602160045260246000fd5b600080fd5b620002f48162000249565b81146200030057600080fd5b50565b6200030e816200025d565b81146200031a57600080fd5b50565b620003288162000287565b81146200033457600080fd5b50565b620003428162000291565b81146200034e57600080fd5b50565b6200035c81620002a1565b81146200036857600080fd5b50565b60805160601c60a05160c05160601c60e0516101005160c01c6101205160e01c610140516113f6620003e76000396000818161079001526107fe0152600061067b0152600061065801526000610637015260006105fb0152600081816103cf015261083301526000818161030f015261036301526113f66000f3fe6080604052600436106100c25760003560e01c806353a2c19a1161007f578063ca6a9ef811610059578063ca6a9ef814610238578063d9dba73214610263578063e55ae4e81461028e578063fd6673f5146102cb576100c2565b806353a2c19a146101a45780636e04ff0d146101cf57806391ad27b41461020d576100c2565b8063115cbaf5146100c75780631fe543e3146100f25780632cfcc5391461011b57806337899770146101255780634585e33b14610150578063473f1ddc14610179575b600080fd5b3480156100d357600080fd5b506100dc6102f6565b6040516100e99190610fe1565b60405180910390f35b3480156100fe57600080fd5b5061011960048036038101906101149190610dd5565b61030d565b005b6101236103cd565b005b34801561013157600080fd5b5061013a61053c565b6040516101479190610ffc565b60405180910390f35b34801561015c57600080fd5b5061017760048036038101906101729190610ce5565b610546565b005b34801561018557600080fd5b5061018e610714565b60405161019b9190610f1a565b60405180910390f35b3480156101b057600080fd5b506101b961073e565b6040516101c69190610ffc565b60405180910390f35b3480156101db57600080fd5b506101f660048036038101906101f19190610d32565b61074d565b604051610204929190610f5e565b60405180910390f35b34801561021957600080fd5b506102226107fa565b60405161022f9190610ffc565b60405180910390f35b34801561024457600080fd5b5061024d610822565b60405161025a9190610ffc565b60405180910390f35b34801561026f57600080fd5b5061027861082f565b6040516102859190610ffc565b60405180910390f35b34801561029a57600080fd5b506102b560048036038101906102b09190610d7b565b610857565b6040516102c29190610f1a565b60405180910390f35b3480156102d757600080fd5b506102e061089e565b6040516102ed9190610ffc565b60405180910390f35b6000600160149054906101000a900460ff16905090565b7f000000000000000000000000000000000000000000000000000000000000000073ffffffffffffffffffffffffffffffffffffffff163373ffffffffffffffffffffffffffffffffffffffff16146103bf57337f00000000000000000000000000000000000000000000000000000000000000006040517f1cf993f40000000000000000000000000000000000000000000000000000000081526004016103b6929190610f35565b60405180910390fd5b6103c982826108aa565b5050565b7f0000000000000000000000000000000000000000000000000000000000000000341015610427576040517fbd4e069500000000000000000000000000000000000000000000000000000000815260040160405180910390fd5b6000600181111561043b5761043a6112d6565b5b600160149054906101000a900460ff16600181111561045d5761045c6112d6565b5b14610494576040517f1425571c00000000000000000000000000000000000000000000000000000000815260040160405180910390fd5b6000339080600181540180825580915050600190039060005260206000200160009091909190916101000a81548173ffffffffffffffffffffffffffffffffffffffff021916908373ffffffffffffffffffffffffffffffffffffffff1602179055503373ffffffffffffffffffffffffffffffffffffffff167f0805e1d667bddb8a95f0f09880cf94f403fb596ce79928d9f29b74203ba284d460405160405180910390a2565b6000600254905090565b60006105606040518060200160405280600081525061074d565b509050806105cf5747600080549050600160149054906101000a900460ff166001811115610591576105906112d6565b5b6040517f584327aa0000000000000000000000000000000000000000000000000000000081526004016105c693929190611017565b60405180910390fd5b60018060146101000a81548160ff021916908360018111156105f4576105f36112d6565b5b02179055507f000000000000000000000000000000000000000000000000000000000000000073ffffffffffffffffffffffffffffffffffffffff16635d3b1d307f00000000000000000000000000000000000000000000000000000000000000007f000000000000000000000000000000000000000000000000000000000000000060037f000000000000000000000000000000000000000000000000000000000000000060016040518663ffffffff1660e01b81526004016106bc959493929190610f8e565b602060405180830381600087803b1580156106d657600080fd5b505af11580156106ea573d6000803e3d6000fd5b505050506040513d601f19601f8201168201806040525081019061070e9190610da8565b50505050565b6000600160009054906101000a900473ffffffffffffffffffffffffffffffffffffffff16905090565b6000600163ffffffff16905090565b600060606000600160149054906101000a900460ff166001811115610775576107746112d6565b5b60006001811115610789576107886112d6565b5b14905060007f0000000000000000000000000000000000000000000000000000000000000000600254426107bd91906110f7565b119050600080600080549050119050600080471190508380156107dd5750825b80156107e65750815b80156107ef5750805b955050505050915091565b60007f0000000000000000000000000000000000000000000000000000000000000000905090565b6000600361ffff16905090565b60007f0000000000000000000000000000000000000000000000000000000000000000905090565b600080828154811061086c5761086b611305565b5b9060005260206000200160009054906101000a900473ffffffffffffffffffffffffffffffffffffffff169050919050565b60008080549050905090565b60008080549050826000815181106108c5576108c4611305565b5b60200260200101516108d79190611247565b905060008082815481106108ee576108ed611305565b5b9060005260206000200160009054906101000a900473ffffffffffffffffffffffffffffffffffffffff16905080600160006101000a81548173ffffffffffffffffffffffffffffffffffffffff021916908373ffffffffffffffffffffffffffffffffffffffff160217905550600067ffffffffffffffff81111561097757610976611334565b5b6040519080825280602002602001820160405280156109a55781602001602082028036833780820191505090505b50600090805190602001906109bb929190610ab0565b504260028190555060008173ffffffffffffffffffffffffffffffffffffffff16476040516109e990610f05565b60006040518083038185875af1925050503d8060008114610a26576040519150601f19603f3d011682016040523d82523d6000602084013e610a2b565b606091505b5050905080610a66576040517fa1d04b3900000000000000000000000000000000000000000000000000000000815260040160405180910390fd5b8173ffffffffffffffffffffffffffffffffffffffff167f5b690ec4a06fe979403046eaeea5b3ce38524683c3001f662c8b5a829632f7df60405160405180910390a25050505050565b828054828255906000526020600020908101928215610b29579160200282015b82811115610b285782518260006101000a81548173ffffffffffffffffffffffffffffffffffffffff021916908373ffffffffffffffffffffffffffffffffffffffff16021790555091602001919060010190610ad0565b5b509050610b369190610b3a565b5090565b5b80821115610b53576000816000905550600101610b3b565b5090565b6000610b6a610b6584611073565b61104e565b90508083825260208201905082856020860282011115610b8d57610b8c61136d565b5b60005b85811015610bbd5781610ba38882610cbb565b845260208401935060208301925050600181019050610b90565b5050509392505050565b6000610bda610bd58461109f565b61104e565b905082815260208101848484011115610bf657610bf5611372565b5b610c018482856111d4565b509392505050565b600082601f830112610c1e57610c1d611368565b5b8135610c2e848260208601610b57565b91505092915050565b60008083601f840112610c4d57610c4c611368565b5b8235905067ffffffffffffffff811115610c6a57610c69611363565b5b602083019150836001820283011115610c8657610c8561136d565b5b9250929050565b600082601f830112610ca257610ca1611368565b5b8135610cb2848260208601610bc7565b91505092915050565b600081359050610cca816113a9565b92915050565b600081519050610cdf816113a9565b92915050565b60008060208385031215610cfc57610cfb61137c565b5b600083013567ffffffffffffffff811115610d1a57610d19611377565b5b610d2685828601610c37565b92509250509250929050565b600060208284031215610d4857610d4761137c565b5b600082013567ffffffffffffffff811115610d6657610d65611377565b5b610d7284828501610c8d565b91505092915050565b600060208284031215610d9157610d9061137c565b5b6000610d9f84828501610cbb565b91505092915050565b600060208284031215610dbe57610dbd61137c565b5b6000610dcc84828501610cd0565b91505092915050565b60008060408385031215610dec57610deb61137c565b5b6000610dfa85828601610cbb565b925050602083013567ffffffffffffffff811115610e1b57610e1a611377565b5b610e2785828601610c09565b9150509250929050565b610e3a8161112b565b82525050565b610e498161113d565b82525050565b610e5881611149565b82525050565b6000610e69826110d0565b610e7381856110db565b9350610e838185602086016111e3565b610e8c81611381565b840191505092915050565b610ea0816111c2565b82525050565b6000610eb36000836110ec565b9150610ebe82611392565b600082019050919050565b610ed281611166565b82525050565b610ee181611194565b82525050565b610ef08161119e565b82525050565b610eff816111ae565b82525050565b6000610f1082610ea6565b9150819050919050565b6000602082019050610f2f6000830184610e31565b92915050565b6000604082019050610f4a6000830185610e31565b610f576020830184610e31565b9392505050565b6000604082019050610f736000830185610e40565b8181036020830152610f858184610e5e565b90509392505050565b600060a082019050610fa36000830188610e4f565b610fb06020830187610ef6565b610fbd6040830186610ec9565b610fca6060830185610ee7565b610fd76080830184610ee7565b9695505050505050565b6000602082019050610ff66000830184610e97565b92915050565b60006020820190506110116000830184610ed8565b92915050565b600060608201905061102c6000830186610ed8565b6110396020830185610ed8565b6110466040830184610ed8565b949350505050565b6000611058611069565b90506110648282611216565b919050565b6000604051905090565b600067ffffffffffffffff82111561108e5761108d611334565b5b602082029050602081019050919050565b600067ffffffffffffffff8211156110ba576110b9611334565b5b6110c382611381565b9050602081019050919050565b600081519050919050565b600082825260208201905092915050565b600081905092915050565b600061110282611194565b915061110d83611194565b9250828210156111205761111f611278565b5b828203905092915050565b600061113682611174565b9050919050565b60008115159050919050565b6000819050919050565b600081905061116182611395565b919050565b600061ffff82169050919050565b600073ffffffffffffffffffffffffffffffffffffffff82169050919050565b6000819050919050565b600063ffffffff82169050919050565b600067ffffffffffffffff82169050919050565b60006111cd82611153565b9050919050565b82818337600083830152505050565b60005b838110156112015780820151818401526020810190506111e6565b83811115611210576000848401525b50505050565b61121f82611381565b810181811067ffffffffffffffff8211171561123e5761123d611334565b5b80604052505050565b600061125282611194565b915061125d83611194565b92508261126d5761126c6112a7565b5b828206905092915050565b7f4e487b7100000000000000000000000000000000000000000000000000000000600052601160045260246000fd5b7f4e487b7100000000000000000000000000000000000000000000000000000000600052601260045260246000fd5b7f4e487b7100000000000000000000000000000000000000000000000000000000600052602160045260246000fd5b7f4e487b7100000000000000000000000000000000000000000000000000000000600052603260045260246000fd5b7f4e487b7100000000000000000000000000000000000000000000000000000000600052604160045260246000fd5b600080fd5b600080fd5b600080fd5b600080fd5b600080fd5b600080fd5b6000601f19601f8301169050919050565b50565b600281106113a6576113a56112d6565b5b50565b6113b281611194565b81146113bd57600080fd5b5056fea26469706673582212207736e67b5caa32fd1a36453c3e076997c07ca521d5fe4d9576b9e49f82e0ccaa64736f6c63430008070033",
  "linkReferences": {},
  "deployedLinkReferences": {}
}